:100000000C942A000C943C000C943C000C943C0092
:100010000C943C000C943C000C943C000C943C0070
:100020000C943C000C943C000C943C000C949F01FC
:100030000C943C000C943C000C943C000C943C0050
:100040000C943C000C943C000C943C000C943C0040
:100050000C943C0011241FBECFE5D8E0DEBFCDBF1D
:1000600010E0A0E6B0E001C01D92A836B107E1F7AC
:100070000E9434020C9492020C9400008091600063
:10008000909161008632910548F4D99ADE9A809168
:1000900060009091610086329105B8F38091600014
:1000A000909161008633910548F4D998DE9880914B
:1000B00060009091610086339105B8F31092610061
:1000C000109260000895EF92FF920F931F93CF93C9
:1000D000DF93EC01DB9ADC9A1092660010926500C7
:1000E0006881798120916500309166004BE550E090
:1000F000649FC001659F900D749F900D11246AE06C
:1001000070E00E947E022617370728F50BE510E005
:100110000F2EFAE0EF2EFF24F02D0E943E0080917A
:10012000650090916600019690936600809365004B
:10013000488159812091650030916600409FC0013F
:10014000419F900D509F900D1124B7010E947E0297
:100150002617370710F3DF91CF911F910F91FF9072
:10016000EF900895EF92FF920F931F93CF93DF9339
:10017000EC01DB98DC9810926600109265006881B3
:10018000798120916500309166004BE550E0649FD5
:10019000C001659F900D749F900D11246AE070E07E
:1001A0000E947E022617370728F50BE510E00F2E78
:1001B000FAE0EF2EFF24F02D0E943E0080916500B2
:1001C0009091660001969093660080936500488147
:1001D00059812091650030916600409FC001419F88
:1001E000900D509F900D1124B7010E947E0226179A
:1001F000370710F3DF91CF911F910F91FF90EF9090
:100200000895EF92FF920F931F93CF93DF93EC012A
:10021000DB9ADC9810926600109265006881798103
:1002200020916500309166004FE150E0649FC0016D
:10023000659F900D749F900D112469E070E00E94FD
:100240007E022617370728F50FE110E00F2EF9E0A0
:10025000EF2EFF24F02D0E943E00809165009091CA
:1002600066000196909366008093650048815981ED
:100270002091650030916600409FC001419F900D24
:10028000509F900D1124B7010E947E022617370758
:1002900010F3DF91CF911F910F91FF90EF90089590
:1002A000EF92FF920F931F93CF93DF93EC01DB98B4
:1002B000DC9A109266001092650068817981209125
:1002C0006500309166004FE150E0649FC001659F7A
:1002D000900D749F900D112469E070E00E947E02E1
:1002E0002617370728F50FE110E00F2EF9E0EF2E63
:1002F000FF24F02D0E943E008091650090916600E1
:100300000196909366008093650048815981209101
:10031000650030916600409FC001419F900D509F45
:10032000900D1124B7010E947E022617370710F3A3
:10033000DF91CF911F910F91FF90EF9008951F9241
:100340000F920FB60F9211248F939F9380916000AC
:1003500090916100019690936100809360009F915D
:100360008F910F900FBE0F901F90189584B78068E3
:1003700084BF84B7806884BF08958FEF8ABB8BBB2E
:1003800082EE94E00197F1F7089590BD89B988E174
:100390008AB98EE880BD0895889A89988CE090E0AB
:1003A0000E94C50108958FEF84BB08955D9BFECF29
:1003B0008CB908955F9BFECF8CB108955F9B03C0FD
:1003C0008CB15F99FDCF089581E083BF89BF089507
:1003D00082E88FBD89E18EBD8D9A8FE19EE497BD45
:1003E00086BD08958617A4F42AB53BB597E0213D54
:1003F000390770F448E853E12AB53BB5255F3F4F14
:100400003BBD2ABDFA013197F1F78F5F86174CF09B
:10041000681714F52AB53BB593E0283E390740F438
:1004200008952AB53BB597E0213D390728F3F0CF71
:1004300048E853E12AB53BB52B5030403BBD2ABDBF
:10044000FA013197F1F78150681734F42AB53BB5BA
:1004500093E0283E390770F708958CED95E09BBD39
:100460008ABD109267000895AF92BF92CF92DF923B
:10047000EF92FF920F931F93DF93CF9300D000D0A2
:10048000CDB7DEB70E94B6010E94BD010E94CC012B
:100490000E94D3010E94E8010E94E40178948AE559
:1004A00090E09A83898384E690E09C838B830F2E6F
:1004B000F8E8EF2EF3E1FF2EF02D09E110E00F2E0A
:1004C000F3E0CF2EDD24F02DCC0EDD1E0F2EF0E15B
:1004D000AF2EF7E2BF2EF02D0E942D02C701F801CA
:1004E0003197F1F70197D9F7C6010E946300C50162
:1004F000F8013197F1F70197D9F7EECFAA1BBB1B93
:1005000051E107C0AA1FBB1FA617B70710F0A61B13
:10051000B70B881F991F5A95A9F780959095BC0134
:08052000CD010895F894FFCF0E
:00000001FF
