:100000000C942A000C943C000C943C000C943C0092
:100010000C943C000C943C000C943C000C943C0070
:100020000C943C000C943C000C943C000C947C0020
:100030000C943C000C943C000C943C000C943C0050
:100040000C943C000C943C000C943C000C943C0040
:100050000C943C0011241FBECFE5D8E0DEBFCDBF1D
:1000600010E0A0E6B0E001C01D92A336B107E1F7B1
:100070000E94EF000C94FF000C94000084B780688D
:1000800084BF84B7806884BF089585B7816085BFC9
:100090008BB780648BBF81E083BF89BF08958FEFEA
:1000A0008ABB8BBBD998DE988EE59AE10197F1F770
:1000B000089590BD89B988E18AB98EE880BD089518
:1000C000889A89988CE090E00E94590008958FEFFB
:1000D00084BB08955D9BFECF8CB908955F9BFECFD6
:1000E0008CB108955F9B03C08CB15F99FDCF0895DB
:1000F00081E083BF89BF08951F920F920FB60F92C0
:1001000011242F938F939F938091600090916100B1
:1001100022E08935920720F0109261001092600071
:1001200080916000909161000196909361008093AE
:1001300060009F918F912F910F900FBE0F901F9095
:1001400018951816190634F520E030E0409160004B
:10015000509161004115510519F4D99ADE9A15C0E4
:1001600040916000509161004331510519F4D998D4
:10017000DE980BC040916000509161004B315105F9
:1001800020F010926100109260002F5F3F4F2817FF
:100190003907E1F60895DB98DC9A1092610010921D
:1001A00060000E94A1000895DB9ADC981092610023
:1001B000109260000E94A1000895DB98DC981092D4
:1001C0006100109260000E94A1000895DB9ADC9A01
:1001D00010926100109260000E94A10008950E9498
:1001E0003E000E944F000E9460000E9467000E9433
:1001F0007800789488EE93E00E94E600FBCFF894B4
:02020000FFCF2E
:00000001FF
