:100000000C942A000C9447000C9446020C94470070
:100010000C9447000C94AE010C9447000C944700DC
:100020000C9447000C9447000C9447000C94150264
:100030000C9447000C9447000C9447000C94470024
:100040000C9447000C9447000C9447000C94470014
:100050000C94470011241FBECFE5D8E0DEBFCDBF12
:1000600010E0A0E6B0E0E8E9F7E002C005900D92EC
:10007000A236B107D9F710E0A2E6B0E001C01D92A8
:10008000A237B107E1F70E9428030C94CA030C942D
:10009000000080916200909163008632910548F4DF
:1000A000D99ADE9A80916200909163008632910520
:1000B000B8F380916200909163008633910548F413
:1000C000D998DE9880916200909163008633910503
:1000D000B8F310926300109262000895EF92FF92BD
:1000E0000F931F93CF93DF93EC01DB9ADC9A14BC40
:1000F0001092700010926F006881798120916F00DA
:10010000309170004BE550E0649FC001659F900DF9
:10011000749F900D11246AE070E00E94A3032617DB
:10012000370728F50BE510E00F2EFAE0EF2EFF243D
:10013000F02D0E94490080916F009091700001960F
:100140009093700080936F004881598120916F00D7
:1001500030917000409FC001419F900D509F900DC5
:100160001124B7010E94A3032617370710F3DF916C
:10017000CF911F910F91FF90EF900895EF92FF9212
:100180000F931F93CF93DF93EC01DB98DC9814BCA3
:100190001092700010926F006881798120916F0039
:1001A000309170004BE550E0649FC001659F900D59
:1001B000749F900D11246AE070E00E94A30326173B
:1001C000370728F50BE510E00F2EFAE0EF2EFF249D
:1001D000F02D0E94490080916F009091700001966F
:1001E0009093700080936F004881598120916F0037
:1001F00030917000409FC001419F900D509F900D25
:100200001124B7010E94A3032617370710F3DF91CB
:10021000CF911F910F91FF90EF900895EF92FF9271
:100220000F931F93CF93DF93EC01DB9ADC9814BC00
:100230001092700010926F006881798120916F0098
:10024000309170004FE150E0649FC001659F900DB8
:10025000749F900D112469E070E00E94A30326179B
:10026000370728F50FE110E00F2EF9E0EF2EFF24FD
:10027000F02D0E94490080916F00909170000196CE
:100280009093700080936F004881598120916F0096
:1002900030917000409FC001419F900D509F900D84
:1002A0001124B7010E94A3032617370710F3DF912B
:1002B000CF911F910F91FF90EF900895EF92FF92D1
:1002C0000F931F93CF93DF93EC01DB98DC9A14BC60
:1002D0001092700010926F006881798120916F00F8
:1002E000309170004FE150E0649FC001659F900D18
:1002F000749F900D112469E070E00E94A3032617FB
:10030000370728F50FE110E00F2EF9E0EF2EFF245C
:10031000F02D0E94490080916F009091700001962D
:100320009093700080936F004881598120916F00F5
:1003300030917000409FC001419F900D509F900DE3
:100340001124B7010E94A3032617370710F3DF918A
:10035000CF911F910F91FF90EF9008951F920F92F0
:100360000FB60F9211248F939F938091620090910A
:100370006300019690936300809362009F918F9138
:100380000F900FBE0F901F90189584B7806884BFA0
:1003900084B7806884BF08958FEF8ABB8BBB82EEE1
:1003A00094E00197F1F7089590BD89B988E18AB981
:1003B0008EE880BD0895889A89988CE090E00E942C
:1003C000D40108958FEF84BB08955D9BFECF8CB957
:1003D00008955F9BFECF8CB108955F9B03C08CB1E5
:1003E0005F99FDCF089583B7816083BF89B781602E
:1003F00089BF089585B5816085BD89B7806489BF4F
:10040000089582E88FBD89E18EBD8D9A8FE19EE4CB
:1004100097BD86BD08958E9A8D9A8A9A85B7846015
:1004200085BF8BB780688BBF08951F920F920FB660
:100430000F9211242F933F938F939F93809160008D
:100440008823D9F4809165008F5F80936500309197
:10045000650022B7932F80E0820F911D29E28C3C2A
:1004600092075CF081E0809360001092640083E664
:1004700090E090936700809366009F918F913F91E9
:100480002F910F900FBE0F901F9018951F920F92F3
:100490000FB60F9211242F933F935F936F937F9327
:1004A0008F939F93AF93BF9380916400813011F538
:1004B00080916000813031F41092600012BE109281
:1004C000650018C0809160008823A1F41092640038
:1004D0003091650022B7932F80E0820F911D6BE66B
:1004E00070E00E94B703709367006093660081E03C
:1004F00080936000BF91AF919F918F917F916F9199
:100500005F913F912F910F900FBE0F901F90189504
:10051000969881E0982F9A95F1F7969A80936400C7
:1005200083E08A95F1F796980895959881E0982F41
:100530009A95F1F7959A8093640083E08A95F1F794
:1005400095980895CF92DF92EF92FF920F931F93A9
:10055000CF93DF936C018A011092690010926800BA
:100560008AEF90E00197F1F7C0E0D0E00F2EF6EAB5
:10057000FF2EF02DEE24E3940E9488028F2D8A95A1
:10058000F1F78091680090916900209166003091A8
:100590006700820F931F9093690080936800F801B1
:1005A000E0822196CA30D10539F780916800909198
:1005B0006900F6018083F8011082DF91CF911F91CD
:1005C0000F91FF90EF90DF90CF9008958617A4F4DD
:1005D0002AB53BB597E0213D390770F448E853E16F
:1005E0002AB53BB5255F3F4F3BBD2ABDFA01319788
:1005F000F1F78F5F86174CF0681714F52AB53BB5F5
:1006000093E0283E390740F408952AB53BB597E0BA
:10061000213D390728F3F0CF48E853E12AB53BB52F
:100620002B5030403BBD2ABDFA013197F1F7815084
:10063000681734F42AB53BB593E0283E390770F7C4
:1006400008958CED95E09BBD8ABD109271000895D0
:100650006F927F928F929F92AF92BF92CF92DF92D2
:10066000EF92FF920F931F93DF93CF93CDB7DEB737
:1006700027970FB6F894DEBF0FBECDBF0E94C5010D
:100680000E94CC010E94DB010E94E2010E94010253
:100690000E94F3010E94FA010E940B0278948AE5FD
:1006A00090E09A83898385E090E09C838B8381E04E
:1006B0008D831E821F8280E197E229E130E0F901FB
:1006C0003197F1F70197D9F78E010B5F1F4F0F2E6E
:1006D000F6E0EF2EFF24F02DEC0EFD1E0F2EF7E0BE
:1006E000CF2EDD24F02DCC0EDD1E0F2EF8EAAF2E1E
:1006F000F1E6BF2EF02D0F2EF3E08F2E9924F02D72
:100700008C0E9D1E3E010894611C711CC801B7012E
:10071000A6010E94A202C5010197F1F78D818A30DE
:1007200020F0C4010E946E00F1CF8D81882321F456
:10073000C3010E940E01EACF8D818A3038F7C401CF
:100740000E94BE00E3CFAA1BBB1B51E107C0AA1F3A
:10075000BB1FA617B70710F0A61BB70B881F991F62
:100760005A95A9F780959095BC01CD01089597FB06
:10077000092E07260AD077FD04D0E5DF06D0002039
:100780001AF4709561957F4F0895F6F790958195CD
:080790009F4F0895F894FFCF7C
:0207980001005E
:00000001FF
