:100000000C942A000C9434000C9434000C943400AA
:100010000C9434000C9434000C9434000C94340090
:100020000C9434000C9434000C9434000C94340080
:100030000C9434000C9434000C9434000C94340070
:100040000C9434000C9434000C9434000C94340060
:100050000C94340011241FBECFE5D8E0DEBFCDBF25
:100060000E9474000C9480000C94000084B7806897
:1000700084BF84B7806884BF08958FEF8ABB8BBB31
:10008000D998DE9884EF91E00197F1F7089590BD3B
:1000900089B988E18AB98EE880BD0895889A8998DF
:1000A0008CE090E00E94470008958FEF84BB089594
:1000B000D99ADE9A82EE94E00197F1F7D998DE980A
:1000C00084EF91E00197F1F7089508955D9BFECFCD
:1000D0008CB908955F9BFECF8CB108955F9B03C0E0
:1000E0008CB15F99FDCF08950E9436000E943D00BB
:1000F0000E944E000E94550078940E945800FDCF47
:04010000F894FFCFA1
:00000001FF
