:100000000C942A000C943C000C943C000C943C0092
:100010000C943C000C943C000C943C000C943C0070
:100020000C943C000C943C000C943C000C94530148
:100030000C943C000C943C000C943C000C943C0050
:100040000C943C000C943C000C943C000C943C0040
:100050000C943C0011241FBECFE5D8E0DEBFCDBF1D
:1000600010E0A0E6B0E001C01D92A636B107E1F7AE
:100070000E949C010C94DF010C94000080916000B0
:10008000909161008632910548F4D99ADE9A809168
:1000900060009091610086329105B8F38091600014
:1000A000909161008633910548F4D998DE9880914B
:1000B00060009091610086339105B8F31092610061
:1000C000109260000895CF93DF93EC01DB9ADC9AE5
:1000D000109265001092640028813981809164003B
:1000E0009091650082179307A0F40E943E008091D2
:1000F0006400909165000196909365008093640080
:10010000288139818091640090916500821793075E
:1001100060F3DF91CF910895CF93DF93EC01DB98EB
:10012000DC981092650010926400288139818091DA
:1001300064009091650082179307A0F40E943E002E
:100140008091640090916500019690936500809382
:100150006400288139818091640090916500821744
:10016000930760F3DF91CF910895EF92FF920F9381
:100170001F93CF93DF93EC01DB9ADC98109265001C
:10018000109264006881798120916400309165004B
:100190004FE150E0649FC001659F900D749F900DEA
:1001A000112469E070E00E94CB012617370728F57B
:1001B0000FE110E00F2EF9E0EF2EFF24F02D0E944A
:1001C0003E008091640090916500019690936500D7
:1001D00080936400488159812091640030916500CA
:1001E000409FC001419F900D509F900D1124B70179
:1001F0000E94CB012617370710F3DF91CF911F9193
:100200000F91FF90EF900895EF92FF920F931F933D
:10021000CF93DF93EC01DB98DC9A1092650010928B
:1002200064006881798120916400309165004FE11C
:1002300050E0649FC001659F900D749F900D112444
:1002400069E070E00E94CB012617370728F50FE11F
:1002500010E00F2EF9E0EF2EFF24F02D0E943E005B
:100260008091640090916500019690936500809361
:100270006400488159812091640030916500409F5D
:10028000C001419F900D509F900D1124B7010E9415
:10029000CB012617370710F3DF91CF911F910F91F4
:1002A000FF90EF9008951F920F920FB60F921124B6
:1002B0008F939F938091600090916100019690933D
:1002C0006100809360009F918F910F900FBE0F90FF
:1002D0001F90189584B7806884BF84B7806884BFF6
:1002E00008958FEF8ABB8BBB82EE94E00197F1F704
:1002F000089590BD89B988E18AB98EE880BD0895D6
:10030000889A89988CE090E00E94790108958FEF97
:1003100084BB08955D9BFECF8CB908955F9BFECF93
:100320008CB108955F9B03C08CB15F99FDCF089598
:1003300081E083BF89BF0895DF93CF9300D000D0C1
:10034000CDB7DEB70E946A010E9471010E94800150
:100350000E9487010E94980178948AE590E09A8330
:1003600089838EE893E09C838B8380E197E229E187
:1003700030E0F9013197F1F70197D9F7CE010396F3
:100380000E94630080E090E00F900F900F900F901C
:10039000CF91DF910895AA1BBB1B51E107C0AA1F93
:1003A000BB1FA617B70710F0A61BB70B881F991F16
:1003B0005A95A9F780959095BC01CD010895F894C0
:0203C000FFCF6D
:00000001FF
