:100000000C942A000C9410010C94CE000C94470020
:100010000C9447000C94DB020C9447000C944700AE
:100020000C9447000C9447000C9447000C94A200D9
:100030000C9447000C9447000C9447000C94470024
:100040000C9447000C9447000C9447000C94470014
:100050000C94470011241FBECFE5D8E0DEBFCDBF12
:1000600011E0A0E6B0E0E0E8F2E102C005900D92F8
:10007000AE36B107D9F711E0AEE6B1E001C01D928E
:10008000A937B107E1F70E94E5020C943E090C94F0
:10009000000084B7806884BF84B7806884BF0895F7
:1000A0008FEF8ABB8BBB80E197E20197F1F7089550
:1000B00090BD89B988E18AB98EE880BD0895889A93
:1000C00089988CE090E00E94580008958FEF84BBDF
:1000D00008955D9BFECF8CB908955F9BFECF8CB1D8
:1000E00008955F9B03C08CB15F99FDCF089583B7DE
:1000F000816083BF89B7816089BF089585B58160BC
:1001000085BD89B7806489BF089582E88FBD8AE183
:100110008EBD8D9A8CED95E09BBD8ABD8FE19EE4EE
:1001200097BD86BD08958C9A8E9A85B7846085BFE9
:1001300085B7816085BF8BB780688BBF8BB78064C4
:100140008BBF08951F920F920FB60F9211248F93B9
:1001500080916400882361F480916F01813041F4C3
:10016000809171018F5F809371018091710182B7DD
:1001700080916400882361F480917001813041F4A2
:10018000809171018F5F809371018091710182B7BD
:100190008F910F900FBE0F901F9018951F920F9286
:1001A0000FB60F9211242F933F935F936F937F931A
:1001B0008F939F93AF93BF9380917001813011F51E
:1001C00080916400813031F41092640012BE10926C
:1001D000710118C0809164008823A1F4109270010D
:1001E0003091710122B7932F80E0820F911D6CEC4A
:1001F00071E00E94F408709373016093720181E0D2
:1002000080936400BF91AF919F918F917F916F9187
:100210005F913F912F910F900FBE0F901F901895F7
:100220001F920F920FB60F9211242F933F935F935B
:100230006F937F938F939F93AF93BF9380916F0141
:10024000813011F580916400813031F410926400A6
:1002500012BE1092710118C0809164008823A1F42D
:1002600010926F013091710122B7932F80E0820FBD
:10027000911D6CEC71E00E94F4087093730160931F
:10028000720181E080936400BF91AF919F918F9143
:100290007F916F915F913F912F910F900FBE0F90C3
:1002A0001F901895949882E08A95F1F7949A81E0CE
:1002B00080936F018AE18A95F1F794980895969852
:1002C00082E08A95F1F7969A81E0809370018AE145
:1002D0008A95F1F7969808958F929F92AF92BF9268
:1002E000DF92EF92FF920F931F93CF93DF935C0106
:1002F0004B018A01109275011092740110927701DE
:100300001092760180ED97E00197F1F7C2E3D0E01B
:100310000F2EF8EEEF2EF3E0FF2EF02DDD24D39418
:100320000E945201C7010197F1F7809174019091E9
:1003300075012091720130917301820F931F909388
:10034000750180937401F801D082219749F780EDFF
:1003500097E00197F1F7C0E0D0E00F2EF8EEEF2E16
:10036000F3E0FF2EF02DDD246894D1F80E945F01A8
:10037000C7010197F1F78091760190917701209163
:10038000720130917301820F931F909377018093D4
:100390007601F801D0822196C233D10539F78091D8
:1003A00074019091750122E330E0B9010E94E008E8
:1003B000F50160838091760190917701B9010E94E7
:1003C000E008F4016083F8011082DF91CF911F9162
:1003D0000F91FF90EF90DF90BF90AF909F908F9024
:1003E0000895982F935D9B35C0F4682F772767FD9C
:1003F0007095872F972F0E9444062CE137EC41E33C
:1004000051E40E941A0520E030E84BEB54E40E94CE
:10041000BC040E9446037BBD6ABD0895D89AD99852
:10042000DA9ADB98DD98DC9ADF98DE9A80E29EE427
:10043000FC013197F1F7D898D99ADA9ADB98DC9ACF
:10044000DD98DE98DF9AFC013197F1F7D898D99AB8
:10045000DA98DB9ADC98DD9ADE98DF9AFC01319716
:10046000F1F7D89AD998DA98DB9ADD9ADC98DF9878
:10047000DE9A0197F1F70895D89AD998DA9ADB981D
:10048000DD9ADC98DF9ADE9880E29EE4FC013197E9
:10049000F1F7D898D99ADA9ADB98DD98DC9ADF9A46
:1004A000DE98FC013197F1F7D898D99ADA98DB9A5F
:1004B000DD98DC9ADF98DE9AFC013197F1F7D89A43
:1004C000D998DA98DB9ADD9ADC98DF98DE9A019762
:1004D000F1F70895AF92BF92CF92DF92EF92FF9221
:1004E0000F931F93CF93DF931092620082E690E008
:1004F00063E670E04EE651E00E946C01809162007C
:10050000853088F04AC00E943C022197E1F71092A2
:100510006200C701B601A5010E946C0180916200D2
:100520008530A8F016C004E110E00F2EF2E6EF2EA1
:10053000F0E0FF2EF02D0F2EF3E6CF2EF0E0DF2EB1
:10054000F02D0F2EFEE6AF2EF1E0BF2EF02DE801CC
:10055000DACF82EE0E94F10188EB9BE028EC30E0DC
:10056000F9013197F1F70197D9F78EE10E94F10176
:1005700088EB9BE028EC30E0F9013197F1F7019727
:10058000D9F780E00E94F10188EB9BE028EC30E095
:10059000F9013197F1F70197D9F7DF91CF911F91C9
:1005A0000F91FF90EF90DF90CF90BF90AF900895A4
:1005B0000E946A0208951F920F920FB60F921124A3
:1005C0000F900FBE0F901F901895AF92BF92CF92D1
:1005D000DF92EF92FF920F931F93CF93DF930E94CE
:1005E00049000E9450000E945F000E9466000E9425
:1005F00085000E9477000E947E000E9493007894FC
:1006000080E29EE40197F1F715BA08EB1BE0C8EC15
:10061000D0E00F2EF2E6EF2EF0E0FF2EF02D0F2EA1
:10062000F3E6CF2EF0E0DF2EF02D0F2EFEE6AF2EFC
:10063000F1E0BF2EF02DC801FE013197F1F70197CF
:10064000D9F7C701B601A5010E946C018091620033
:10065000853050F49091620080916300981720F4E7
:100660008FE00E94F101E7CF80916300853050F464
:100670009091630080916200981720F481EF0E94AE
:10068000F101D9CF80E00E94F101D5CFEF92FF9226
:100690000F931F937B018C0120E030E040E05FE48A
:1006A0000E94140687FD11C0C801B70120E030E0A8
:1006B00040E05FE40E94E9040E94A4069B01AC01B3
:1006C000205030404040504806C0C801B7010E9449
:1006D000A4069B01AC01B901CA011F910F91FF90C3
:1006E000EF900895A0E0B0E0E8E7F3E00C940B0988
:1006F000FC01EA018081823008F438C1DB019C9161
:10070000923008F430C1843059F4943009F02EC18D
:10071000918111968C911197981709F021C126C1EA
:10072000943009F420C19230B1F4823009F01EC136
:10073000CA01AF0128E0DA010D90AD01DC010D9294
:10074000CD012150C1F7DB0111968C911197918158
:10075000892389830AC1823009F405C1C280D3800C
:10076000DB0112966D907C90139724813581468130
:1007700057811496ED90FD900D911C911797C6012D
:10078000861997095C0197FF04C0AA24BB24A81A04
:10079000B90AB0E2AB16B1040CF061C01816190624
:1007A0006CF5370148010A2C04C09694879477941D
:1007B00067940A94D2F781E090E0A0E0B0E00A2CC0
:1007C00004C0880F991FAA1FBB1F0A94D2F7019774
:1007D000A109B1098E219F21A023B123EE24FF247A
:1007E0008701E3940097A105B10519F4EE24FF24D5
:1007F0008701E628F728082919293CC00097D1F17C
:10080000CA0CDB1C39014A010A2C04C09694879457
:10081000779467940A94D2F781E090E0A0E0B0E08A
:100820000A2C04C0880F991FAA1FBB1F0A94D2F775
:100830000197A109B10982239323A423B52321E0C1
:1008400030E040E050E00097A105B10519F420E048
:1008500030E0A90126293729482959290BC06C14F1
:100860007D0424F4EE24FF24870104C0630120E00A
:1008700030E0A9018181FB019181891709F445C00C
:10088000882349F0D801C701821B930BA40BB50B39
:100890009C01AD0104C02E193F09400B510B57FDBF
:1008A00004C01982DB82CA820BC081E08983DB82AB
:1008B000CA8250954095309521953F4F4F4F5F4FDD
:1008C0002C833D834E835F830DC0880F991FAA1F21
:1008D000BB1F8C839D83AE83BF838A819B810197DD
:1008E0009B838A838C819D81AE81BF819C01AD01F8
:1008F00021503040404050402F3FEFEF3E07EFEF98
:100900004E07EFE35E0708F30BC08983DB82CA82E0
:100910002E0D3F1D401F511F2C833D834E835F834F
:1009200083E088832C813D814E815F8157FF1DC00C
:10093000DA01C90181709070A070B070569547952A
:1009400037952795822B932BA42BB52B8C839D83D6
:10095000AE83BF838A819B8101969B838A8305C076
:10096000E5E6F0E003C0FB0101C0FE01CF01CDB719
:10097000DEB7EEE00C942709A0E2B0E0E2ECF4E090
:100980000C94130969837A838B839C832D833E8324
:100990004F83588789E0E82EF12CEC0EFD1ECE0126
:1009A0000196B7010E941E088E010F5E1F4FCE01F7
:1009B0000596B8010E941E08C701B801AE01475E46
:1009C0005F4F0E9472030E945007A096E6E00C94CD
:1009D0002F09A0E2B0E0EFEEF4E00C941309698374
:1009E0007A838B839C832D833E834F8358878E012C
:1009F000075F1F4FCE010196B8010E941E0891E1CA
:100A0000E92EF12CEC0EFD1ECE010596B7010E94D9
:100A10001E088A8991E089278A8BC801B701AE0137
:100A2000475E5F4F0E9472030E945007A096E6E067
:100A30000C942F09A0E2B0E0E0E2F5E00C94070985
:100A400069837A838B839C832D833E834F8358876E
:100A5000CE010196BE01675F7F4F0E941E08CE0146
:100A60000596BE016F5E7F4F0E941E0899859230E9
:100A700078F089898230C0F0943019F4823041F4E2
:100A8000CBC0843019F4923079F4C6C0923051F45E
:100A900081E02A859A89291709F480E08A87CE01A6
:100AA0000996BCC0823051F481E02A859A892917C1
:100AB00009F480E08A8BCE014196B0C06D847E84BB
:100AC0008F849888ED88FE880F89188DE0E2F0E029
:100AD00080E090E0DC01AA24BB24650120E030E046
:100AE000A901B3016170707061157105D1F02E0D0F
:100AF0003F1D401F511F15012601280E391E4A1E99
:100B00005B1E81E090E0A0E0B0E02E153F054007BD
:100B1000510718F080E090E0DC01820D931DA41DC8
:100B2000B51DAA0CBB1CCC1CDD1C17FF09C061E065
:100B3000262E312C412C512CA228B328C428D5288C
:100B4000319749F0EE0CFF1C001F111F96948794FB
:100B500077946794C6CF6B897C89EB85FC856E0F93
:100B60007F1F6E5F7F4F7C8F6B8F61E0EA857A8994
:100B7000E71709F460E06A8F6B8D7C8D10C0FC0173
:100B8000E170F070309729F0569547953795279585
:100B90005068B695A795979587956F5F7F4FB7FD7E
:100BA000EECF0CC0880F991FAA1FBB1F57FD816095
:100BB000220F331F441F551F615070408030E0E00A
:100BC0009E07E0E0AE07E0E4BE0760F36B8F7C8F2A
:100BD0006FE7E62EF12C012D112DE822F9220A23D0
:100BE0001B2360E4E616F1040105110561F487FD9D
:100BF0000AC0211531054105510529F0805C9F4F40
:100C0000AF4FBF4F80788D8F9E8FAF8FB8A383E09B
:100C1000898FCE01499602C085E690E00E94500778
:100C2000A096E2E10C942309A8E1B0E0EAE1F6E045
:100C30000C94130969837A838B839C832D833E8371
:100C40004F8358878E01075F1F4FCE010196B80171
:100C50000E941E0881E1E82EF12CEC0EFD1ECE0153
:100C60000596B7010E941E088985823040F0898967
:100C7000823028F0C801B7010E94870801C08FEFB9
:100C80006896E6E00C942F09A8E0B0E0EAE4F6E00C
:100C90000C9413097B018C0183E08983D801C7017F
:100CA0008827B7FD83959927AA27BB27282F8A83F2
:100CB000E114F1040105110519F482E0898337C0BC
:100CC0008EE190E09C838B83222389F080E0E816FC
:100CD00080E0F80680E0080780E8180769F11095C1
:100CE0000095F094E094E11CF11C011D111DED82B2
:100CF000FE820F831887C801B7010E94F6069C0187
:100D0000215030401216130694F4022E04C0EE0C4B
:100D1000FF1C001F111F0A94D2F7ED82FE820F8381
:100D200018878EE190E0821B930B9C838B83CE010E
:100D300001960E94500704C060E070E080E09FECE4
:100D40002896E6E00C942F09ACE0B0E0EAEAF6E081
:100D50000C94170969837A838B839C83CE01019657
:100D6000BE016B5F7F4F0E941E088D81823081F132
:100D7000823070F1843021F48E81882369F10AC0B9
:100D80002F81388537FD24C06E812F3131053CF02D
:100D9000662311F120E030E040E050E821C08EE110
:100DA00090E0821B930B29853A854B855C8504C0B6
:100DB00056954795379527958A95D2F7662381F002
:100DC00050954095309521953F4F4F4F5F4F08C04C
:100DD00020E030E0A90104C02FEF3FEF4FEF5FE7C5
:100DE000B901CA012C96E2E00C943309AF92BF928C
:100DF000CF92DF92EF92FF920F931F937B018C01B2
:100E000080E0E81680E0F80681E0080780E0180737
:100E100058F4EFEFEE16F1040105110509F090F416
:100E200080E090E0DC0117C0F0E0EF16F0E0FF0694
:100E3000F0E00F07F1E01F0750F480E190E0A0E040
:100E4000B0E009C088E090E0A0E0B0E004C088E134
:100E500090E0A0E0B0E020E230E040E050E0281B6D
:100E6000390B4A0B5B0B5701680104C0D694C79439
:100E7000B794A7948A95D2F7D601C50183599F4F9D
:100E8000FC018081281B310941095109C9011F91C9
:100E90000F91FF90EF90DF90CF90BF90AF900895AB
:100EA000EF92FF920F931F93CF93DF93FC01248166
:100EB00035814681578161818081823020F4406193
:100EC000EFEFF0E0A3C0843009F49BC0823009F456
:100ED00092C0211531054105510509F48FC00280EA
:100EE000F381E02D8FEFE238F8070CF05AC0C2E82A
:100EF000DFEFCE1BDF0BCA31D1056CF579018A011A
:100F00000C2E04C016950795F794E7940A94D2F72F
:100F100081E090E0A0E0B0E00C2E04C0880F991FA3
:100F2000AA1FBB1F0A94D2F70197A109B109822316
:100F30009323A423B52321E030E040E050E0009764
:100F4000A105B10519F420E030E0A9012E293F29BF
:100F5000402B512B03C020E030E0A901DA01C90188
:100F60008F779070A070B07080349105A105B105A5
:100F700039F427FF09C0205C3F4F4F4F5F4F04C03B
:100F8000215C3F4F4F4F5F4FE1E0F0E0203080E0C9
:100F9000380780E0480780E4580728F5E0E0F0E0F3
:100FA00022C0E038F1056CF5E158FF4FDA01C901C4
:100FB0008F779070A070B07080349105A105B10555
:100FC00039F427FF09C0205C3F4F4F4F5F4F04C0EB
:100FD000215C3F4F4F4F5F4F57FF05C056954795D8
:100FE00037952795319687E05695479537952795FC
:100FF0008A95D1F70BC0E0E0F0E005C0E0E0F0E05A
:1010000005C0EFEFF0E020E030E0A9018E2F8795DA
:1010100088278795942F9F77679566276795E6952C
:10102000E22EA92FA82BFE2FF62B622F732F8A2FCB
:101030009F2FCDB7DEB7E6E00C942F09DC01FB0152
:101040002C9111963C91119712968C911297482FE2
:101050004F7750E0982F991F9927991F13966C91FD
:101060001397862F880F892B90E0661F6627661FCF
:101070006183009739F5211531054105510511F4BA
:1010800082E029C082E89FEF9383828367E0220F8A
:10109000331F441F551F6A95D1F783E0808309C031
:1010A000220F331F441F551F828193810197938321
:1010B0008283203080E0380780E0480780E45807CA
:1010C00078F320C08F3F910579F421153105410552
:1010D000510519F484E08083089544FF03C081E042
:1010E000808310C010820EC08F57904093838283FC
:1010F00083E0808387E0220F331F441F551F8A95AA
:10110000D1F7506424833583468357830895FC01C7
:10111000DB019081923008F449C08C91823008F450
:1011200045C0943051F461818430B1F511962C9111
:10113000119730E0261B310941C0843021F09230F4
:1011400041F48230B1F111968C9111978823A1F16D
:101150002DC06181823001F111968C911197681731
:10116000D9F42281338112968D919C911397821725
:10117000930794F028173907BCF024813581468104
:10118000578114968D919D910D90BC91A02D821741
:101190009307A407B50718F4662341F00DC028177C
:1011A00039074A075B0728F4662331F021E030E075
:1011B00005C020E030E002C02FEF3FEFC9010895E5
:1011C000AA1BBB1B51E107C0AA1FBB1FA617B7076D
:1011D00010F0A61BB70B881F991F5A95A9F7809589
:1011E0009095BC01CD01089597FB092E07260AD0E2
:1011F00077FD04D0E5DF06D000201AF470956195E4
:101200007F4F0895F6F7909581959F4F08952F92FF
:101210003F924F925F926F927F928F929F92AF9286
:10122000BF92CF92DF92EF92FF920F931F93CF93D3
:10123000DF93CDB7DEB7CA1BDB0B0FB6F894DEBF6A
:101240000FBECDBF09942A88398848885F846E8490
:101250007D848C849B84AA84B984C884DF80EE80DA
:10126000FD800C811B81AA81B981CE0FD11D0FB6E3
:10127000F894DEBF0FBECDBFED010895F894FFCF07
:101280005A000101010000000000000000000102FE
:101290000203030303040404040404040405050511
:1012A00005050505050505050505050505060606EB
:1012B00006060606060606060606060606060606CE
:1012C00006060606060606060606060606070707BB
:1012D000070707070707070707070707070707079E
:1012E000070707070707070707070707070707078E
:1012F000070707070707070707070707070707077E
:10130000070707070707070707070707070808086A
:10131000080808080808080808080808080808084D
:10132000080808080808080808080808080808083D
:10133000080808080808080808080808080808082D
:10134000080808080808080808080808080808081D
:10135000080808080808080808080808080808080D
:1013600008080808080808080808080808080808FD
:1013700008080808080808080808080808080808ED
:0E1380000808080808080808080808080800F7
:00000001FF
