:100000000C942A000C943C000C943C000C943C0092
:100010000C943C000C943C000C943C000C943C0070
:100020000C943C000C943C000C943C000C94A700F5
:100030000C943C000C943C000C943C000C943C0050
:100040000C943C000C943C000C943C000C943C0040
:100050000C943C0011241FBECFE5D8E0DEBFCDBF1D
:1000600010E0A0E6B0E001C01D92A436B107E1F7B0
:100070000E94BE000C94CC000C94000084B78068F1
:1000800084BF84B7806884BF089581E083BF89BF3F
:1000900008958FEF8ABB8BBB82EE94E00197F1F756
:1000A000089590BD89B988E18AB98EE880BD089528
:1000B000889A89988CE090E00E94510008958FEF13
:1000C00084BB08958091600090916100009719F4BD
:1000D000D99ADE9A089580916000909161008331F1
:1000E000910519F4D998DE98089580916000909157
:1000F00061008B31910520F0109261001092600038
:100100000895DB9ADC9A0E9462000895DB98DC98DF
:100110000E9462000895DB9ADC980E9462000895B4
:10012000DB98DC9A0E94620008955D9BFECF8CB93B
:1001300008955F9BFECF8CB108955F9B03C08CB187
:100140005F99FDCF089581E083BF89BF08951F9215
:100150000F920FB60F9211248F939F93809160009E
:1001600090916100019690936100809360009F914F
:100170008F910F900FBE0F901F9018950E943E0018
:100180000E9449000E9458000E945F000E94A30044
:0C01900078940E948B00FDCFF894FFCF04
:00000001FF
