:100000000C942A000C9447000C9446020C94470070
:100010000C9447000C94AE010C9447000C944700DC
:100020000C9447000C9447000C9447000C94150264
:100030000C9447000C9447000C9447000C94470024
:100040000C9447000C9447000C9447000C94470014
:100050000C94470011241FBECFE5D8E0DEBFCDBF12
:1000600011E0A0E6B0E0E8EFF2E102C005900D92E9
:10007000AA36B107D9F711E0AAE6B1E001C01D9296
:10008000A937B107E1F70E9407030C947A090C9491
:10009000000080916A0190916B018632910548F4CD
:1000A000D99ADE9A80916A0190916B01863291050E
:1000B000B8F380916A0190916B018633910548F401
:1000C000D998DE9880916A0190916B0186339105F1
:1000D000B8F310926B0110926A010895EF92FF92AB
:1000E0000F931F93CF93DF93EC01DB9ADC9A14BC40
:1000F00010927701109276016881798120917601C2
:10010000309177014BE550E0649FC001659F900DF1
:10011000749F900D11246AE070E00E941C0926175C
:10012000370728F50BE510E00F2EFAE0EF2EFF243D
:10013000F02D0E94490080917601909177010196FF
:1001400090937701809376014881598120917601BF
:1001500030917701409FC001419F900D509F900DBD
:100160001124B7010E941C092617370710F3DF91ED
:10017000CF911F910F91FF90EF900895EF92FF9212
:100180000F931F93CF93DF93EC01DB98DC9814BCA3
:100190001092770110927601688179812091760121
:1001A000309177014BE550E0649FC001659F900D51
:1001B000749F900D11246AE070E00E941C092617BC
:1001C000370728F50BE510E00F2EFAE0EF2EFF249D
:1001D000F02D0E944900809176019091770101965F
:1001E000909377018093760148815981209176011F
:1001F00030917701409FC001419F900D509F900D1D
:100200001124B7010E941C092617370710F3DF914C
:10021000CF911F910F91FF90EF900895EF92FF9271
:100220000F931F93CF93DF93EC01DB9ADC9814BC00
:100230001092770110927601688179812091760180
:10024000309177014FE150E0649FC001659F900DB0
:10025000749F900D112469E070E00E941C0926171C
:10026000370728F50FE110E00F2EF9E0EF2EFF24FD
:10027000F02D0E94490080917601909177010196BE
:10028000909377018093760148815981209176017E
:1002900030917701409FC001419F900D509F900D7C
:1002A0001124B7010E941C092617370710F3DF91AC
:1002B000CF911F910F91FF90EF900895EF92FF92D1
:1002C0000F931F93CF93DF93EC01DB98DC9A14BC60
:1002D00010927701109276016881798120917601E0
:1002E000309177014FE150E0649FC001659F900D10
:1002F000749F900D112469E070E00E941C0926177C
:10030000370728F50FE110E00F2EF9E0EF2EFF245C
:10031000F02D0E944900809176019091770101961D
:1003200090937701809376014881598120917601DD
:1003300030917701409FC001419F900D509F900DDB
:100340001124B7010E941C092617370710F3DF910B
:10035000CF911F910F91FF90EF9008951F920F92F0
:100360000FB60F9211248F939F9380916A01909101
:100370006B01019690936B0180936A019F918F911D
:100380000F900FBE0F901F90189584B7806884BFA0
:1003900084B7806884BF08958FEF8ABB8BBB82EEE1
:1003A00094E00197F1F7089590BD89B988E18AB981
:1003B0008EE880BD0895889A89988CE090E00E942C
:1003C000D40108958FEF84BB08955D9BFECF8CB957
:1003D00008955F9BFECF8CB108955F9B03C08CB1E5
:1003E0005F99FDCF089583B7816083BF89B781602E
:1003F00089BF089585B5816085BD89B7806489BF4F
:10040000089582E88FBD89E18EBD8D9A8FE19EE4CB
:1004100097BD86BD08958C9A8E9A8A9A85B7846016
:1004200085BF8BB780688BBF08951F920F920FB660
:100430000F9211242F933F938F939F93809160008D
:100440008823D9F480916D018F5F80936D01309185
:100450006D0122B7932F80E0820F911D29E28C3C21
:1004600092075CF081E08093600010926C0183E65B
:1004700090E090936F0180936E019F918F913F91D7
:100480002F910F900FBE0F901F9018951F920F92F3
:100490000FB60F9211242F933F935F936F937F9327
:1004A0008F939F93AF93BF9380916C01813011F52F
:1004B00080916000813031F41092600012BE109281
:1004C0006D0118C0809160008823A1F410926C0126
:1004D00030916D0122B7932F80E0820F911D6BE662
:1004E00070E00E94300970936F0160936E0181E0AB
:1004F00080936000BF91AF919F918F917F916F9199
:100500005F913F912F910F900FBE0F901F90189504
:10051000949881E0982F9A95F1F7949A80936C01C2
:1005200083E08A95F1F794980895969881E0982F42
:100530009A95F1F7969A80936C0183E08A95F1F78A
:1005400096980895CF92DF92EF92FF920F931F93A8
:10055000CF93DF936C018A011092710110927001A8
:100560008AEF90E00197F1F7C0E0D0E00F2EF6EAB5
:10057000FF2EF02DEE24E3940E9488028F2D8A95A1
:10058000F1F7809170019091710120916E0130918D
:100590006F01820F931F9093710180937001F80196
:1005A000E0822196CA30D10539F78091700190918F
:1005B00071016AE070E00E941C09F6016083F80195
:1005C0001082DF91CF911F910F91FF90EF90DF90FC
:1005D000CF900895982F935D9B35C0F4682F7727AF
:1005E00067FD7095872F972F0E9480062CE137ECCE
:1005F00041E351E40E94560520E030E84BEB54E41F
:100600000E94F8040E9482037BBD6ABD08956F9228
:100610007F928F929F92AF92BF92CF92DF92EF9292
:10062000FF920F931F93DF93CF93CDB7DEB727973A
:100630000FB6F894DEBF0FBECDBF0E94C5010E9469
:10064000CC010E94DB010E94E2010E9401020E9493
:10065000F3010E94FA010E940B0278948AE590E06F
:100660009A83898385E090E09C838B8381E08D83EE
:100670001E821F8280E197E229E130E0F901319783
:10068000F1F70197D9F78E010B5F1F4F0F2EF6E0A0
:10069000EF2EFF24F02DEC0EFD1E0F2EF7E0CF2ED7
:1006A000DD24F02DCC0EDD1E0F2EF8EAAF2EF1E684
:1006B000BF2EF02D0F2EF3E08F2E9924F02D8C0EEF
:1006C0009D1E3E010894611C711CC801B701A60162
:1006D0000E94A202C5010197F1F78D818A3020F0B6
:1006E000C4010E946E00F1CF8D81882321F4C301E3
:1006F0000E940E01EACF8D818A3038F7C4010E9432
:10070000BE00E3CFEF92FF920F931F937B018C010A
:1007100020E030E040E05FE40E94500687FD11C019
:10072000C801B70120E030E040E05FE40E94250509
:100730000E94E0069B01AC012050304040405048F0
:1007400006C0C801B7010E94E0069B01AC01B901D7
:10075000CA011F910F91FF90EF900895A0E0B0E0C3
:10076000E4EBF3E00C944709FC01EA01808182305C
:1007700008F438C1DB019C91923008F430C1843018
:1007800059F4943009F02EC1918111968C911197F2
:10079000981709F021C126C1943009F420C1923084
:1007A000B1F4823009F01EC1CA01AF0128E0DA01BC
:1007B0000D90AD01DC010D92CD012150C1F7DB019F
:1007C00011968C9111979181892389830AC1823076
:1007D00009F405C1C280D380DB0112966D907C9034
:1007E000139724813581468157811496ED90FD90B1
:1007F0000D911C911797C601861997095C0197FF07
:1008000004C0AA24BB24A81AB90AB0E2AB16B104EA
:100810000CF061C0181619066CF5370148010A2C56
:1008200004C096948794779467940A94D2F781E0F1
:1008300090E0A0E0B0E00A2C04C0880F991FAA1F26
:10084000BB1F0A94D2F70197A109B1098E219F21FC
:10085000A023B123EE24FF248701E3940097A10590
:10086000B10519F4EE24FF248701E628F7280829AA
:1008700019293CC00097D1F1CA0CDB1C39014A018F
:100880000A2C04C096948794779467940A94D2F7BC
:1008900081E090E0A0E0B0E00A2C04C0880F991F2E
:1008A000AA1FBB1F0A94D2F70197A109B10982239D
:1008B0009323A423B52321E030E040E050E00097EB
:1008C000A105B10519F420E030E0A9012629372956
:1008D000482959290BC06C147D0424F4EE24FF240C
:1008E000870104C0630120E030E0A9018181FB01A0
:1008F0009181891709F445C0882349F0D801C701BF
:10090000821B930BA40BB50B9C01AD0104C02E19E7
:100910003F09400B510B57FD04C01982DB82CA828C
:100920000BC081E08983DB82CA8250954095309567
:1009300021953F4F4F4F5F4F2C833D834E835F8305
:100940000DC0880F991FAA1FBB1F8C839D83AE8388
:10095000BF838A819B8101979B838A838C819D8140
:10096000AE81BF819C01AD012150304040405040DC
:100970002F3FEFEF3E07EFEF4E07EFE35E0708F381
:100980000BC08983DB82CA822E0D3F1D401F511F81
:100990002C833D834E835F8383E088832C813D815C
:1009A0004E815F8157FF1DC0DA01C90181709070CF
:1009B000A070B0705695479537952795822B932B4D
:1009C000A42BB52B8C839D83AE83BF838A819B81AF
:1009D00001969B838A8305C0E1E6F0E003C0FB013A
:1009E00001C0FE01CF01CDB7DEB7EEE00C94630984
:1009F000A0E2B0E0EEEFF4E00C944F0969837A8353
:100A00008B839C832D833E834F83588789E0E82E18
:100A1000F12CEC0EFD1ECE010196B7010E945A0882
:100A20008E010F5E1F4FCE010596B8010E945A0835
:100A3000C701B801AE01475E5F4F0E94AE030E943E
:100A40008C07A096E6E00C946B09A0E2B0E0EBE224
:100A5000F5E00C944F0969837A838B839C832D8303
:100A60003E834F8358878E01075F1F4FCE0101964B
:100A7000B8010E945A0891E1E92EF12CEC0EFD1EFE
:100A8000CE010596B7010E945A088A8991E089270C
:100A90008A8BC801B701AE01475E5F4F0E94AE036B
:100AA0000E948C07A096E6E00C946B09A0E2B0E0EF
:100AB000ECE5F5E00C94430969837A838B839C838E
:100AC0002D833E834F835887CE010196BE01675F19
:100AD0007F4F0E945A08CE010596BE016F5E7F4F80
:100AE0000E945A089985923078F089898230C0F046
:100AF000943019F4823041F4CBC0843019F4923030
:100B000079F4C6C0923051F481E02A859A89291778
:100B100009F480E08A87CE010996BCC0823051F486
:100B200081E02A859A89291709F480E08A8BCE0111
:100B30004196B0C06D847E848F849888ED88FE884D
:100B40000F89188DE0E2F0E080E090E0DC01AA245B
:100B5000BB24650120E030E0A901B3016170707031
:100B600061157105D1F02E0D3F1D401F511F15015C
:100B70002601280E391E4A1E5B1E81E090E0A0E08F
:100B8000B0E02E153F054007510718F080E090E0D7
:100B9000DC01820D931DA41DB51DAA0CBB1CCC1C31
:100BA000DD1C17FF09C061E0262E312C412C512C91
:100BB000A228B328C428D528319749F0EE0CFF1C91
:100BC000001F111F9694879477946794C6CF6B8902
:100BD0007C89EB85FC856E0F7F1F6E5F7F4F7C8F5E
:100BE0006B8F61E0EA857A89E71709F460E06A8F24
:100BF0006B8D7C8D10C0FC01E170F070309729F096
:100C000056954795379527955068B695A79597952A
:100C100087956F5F7F4FB7FDEECF0CC0880F991F90
:100C2000AA1FBB1F57FD8160220F331F441F551F92
:100C3000615070408030E0E09E07E0E0AE07E0E405
:100C4000BE0760F36B8F7C8F6FE7E62EF12C012DD2
:100C5000112DE822F9220A231B2360E4E616F10491
:100C60000105110561F487FD0AC021153105410513
:100C7000510529F0805C9F4FAF4FBF4F80788D8F1B
:100C80009E8FAF8FB8A383E0898FCE01499602C0B3
:100C900081E690E00E948C07A096E2E10C945F0947
:100CA000A8E1B0E0E6E5F6E00C944F0969837A83A9
:100CB0008B839C832D833E834F8358878E01075FF0
:100CC0001F4FCE010196B8010E945A0881E1E82E1B
:100CD000F12CEC0EFD1ECE010596B7010E945A08BC
:100CE0008985823040F08989823028F0C801B701B7
:100CF0000E94C30801C08FEF6896E6E00C946B0970
:100D0000A8E0B0E0E6E8F6E00C944F097B018C0126
:100D100083E08983D801C7018827B7FD8395992788
:100D2000AA27BB27282F8A83E114F10401051105A6
:100D300019F482E0898337C08EE190E09C838B8335
:100D4000222389F080E0E81680E0F80680E00807BA
:100D500080E8180769F110950095F094E094E11C83
:100D6000F11C011D111DED82FE820F831887C80141
:100D7000B7010E9432079C01215030401216130621
:100D800094F4022E04C0EE0CFF1C001F111F0A94E5
:100D9000D2F7ED82FE820F8318878EE190E0821BEE
:100DA000930B9C838B83CE0101960E948C0704C019
:100DB00060E070E080E09FEC2896E6E00C946B0920
:100DC000ACE0B0E0E6EEF6E00C94530969837A8378
:100DD0008B839C83CE010196BE016B5F7F4F0E9487
:100DE0005A088D81823081F1823070F1843021F493
:100DF0008E81882369F10AC02F81388537FD24C090
:100E00006E812F3131053CF0662311F120E030E096
:100E100040E050E821C08EE190E0821B930B2985D1
:100E20003A854B855C8504C056954795379527953F
:100E30008A95D2F7662381F050954095309521959B
:100E40003F4F4F4F5F4F08C020E030E0A90104C082
:100E50002FEF3FEF4FEF5FE7B901CA012C96E2E0B9
:100E60000C946F09AF92BF92CF92DF92EF92FF92F4
:100E70000F931F937B018C0180E0E81680E0F80659
:100E800081E0080780E0180758F4EFEFEE16F10450
:100E90000105110509F090F480E090E0DC0117C035
:100EA000F0E0EF16F0E0FF06F0E00F07F1E01F07BB
:100EB00050F480E190E0A0E0B0E009C088E090E06C
:100EC000A0E0B0E004C088E190E0A0E0B0E020E263
:100ED00030E040E050E0281B390B4A0B5B0B570118
:100EE000680104C0D694C794B794A7948A95D2F7A2
:100EF000D601C50187599F4FFC018081281B31090C
:100F000041095109C9011F910F91FF90EF90DF90A6
:100F1000CF90BF90AF900895EF92FF920F931F93E1
:100F2000CF93DF93FC012481358146815781618114
:100F30008081823020F44061EFEFF0E0A3C0843084
:100F400009F49BC0823009F492C021153105410596
:100F5000510509F48FC00280F381E02D8FEFE23854
:100F6000F8070CF05AC0C2E8DFEFCE1BDF0BCA3126
:100F7000D1056CF579018A010C2E04C016950795F0
:100F8000F794E7940A94D2F781E090E0A0E0B0E013
:100F90000C2E04C0880F991FAA1FBB1F0A94D2F7FA
:100FA0000197A109B10982239323A423B52321E04A
:100FB00030E040E050E00097A105B10519F420E0D1
:100FC00030E0A9012E293F29402B512B03C020E0FE
:100FD00030E0A901DA01C9018F779070A070B0707C
:100FE00080349105A105B10539F427FF09C0205CC3
:100FF0003F4F4F4F5F4F04C0215C3F4F4F4F5F4FFC
:10100000E1E0F0E0203080E0380780E0480780E44D
:10101000580728F5E0E0F0E022C0E038F1056CF573
:10102000E158FF4FDA01C9018F779070A070B0705E
:1010300080349105A105B10539F427FF09C0205C72
:101040003F4F4F4F5F4F04C0215C3F4F4F4F5F4FAB
:1010500057FF05C05695479537952795319687E0F8
:1010600056954795379527958A95D1F70BC0E0E0BF
:10107000F0E005C0E0E0F0E005C0EFEFF0E020E0D8
:1010800030E0A9018E2F879588278795942F9F7729
:10109000679566276795E695E22EA92FA82BFE2F68
:1010A000F62B622F732F8A2F9F2FCDB7DEB7E6E086
:1010B0000C946B09DC01FB012C9111963C9111976A
:1010C00012968C911297482F4F7750E0982F991FC6
:1010D0009927991F13966C911397862F880F892B48
:1010E00090E0661F6627661F6183009739F521151A
:1010F00031054105510511F482E029C082E89FEFD6
:101100009383828367E0220F331F441F551F6A9524
:10111000D1F783E0808309C0220F331F441F551F7E
:1011200082819381019793838283203080E0380706
:1011300080E0480780E4580778F320C08F3F91058E
:1011400079F4211531054105510519F484E08083B6
:10115000089544FF03C081E0808310C010820EC058
:101160008F5790409383828383E0808387E0220FB0
:10117000331F441F551F8A95D1F75064248335834C
:10118000468357830895FC01DB019081923008F477
:1011900049C08C91823008F445C0943051F461818B
:1011A0008430B1F511962C91119730E0261B31094E
:1011B00041C0843021F0923041F48230B1F1119677
:1011C0008C9111978823A1F12DC06181823001F1AA
:1011D00011968C9111976817D9F422813381129658
:1011E0008D919C9113978217930794F028173907D4
:1011F000BCF0248135814681578114968D919D9153
:101200000D90BC91A02D82179307A407B50718F481
:10121000662341F00DC0281739074A075B0728F4F9
:10122000662331F021E030E005C020E030E002C06C
:101230002FEF3FEFC9010895AA1BBB1B51E107C067
:10124000AA1FBB1FA617B70710F0A61BB70B881F56
:10125000991F5A95A9F780959095BC01CD010895E5
:1012600097FB092E07260AD077FD04D0E5DF06D0CC
:1012700000201AF4709561957F4F0895F6F79095C8
:1012800081959F4F08952F923F924F925F926F9258
:101290007F928F929F92AF92BF92CF92DF92EF9206
:1012A000FF920F931F93CF93DF93CDB7DEB7CA1B87
:1012B000DB0B0FB6F894DEBF0FBECDBF09942A88B2
:1012C000398848885F846E847D848C849B84AA845A
:1012D000B984C884DF80EE80FD800C811B81AA81E7
:1012E000B981CE0FD11D0FB6F894DEBF0FBECDBFB2
:0812F000ED010895F894FFCF11
:1012F80001000000000000000000010202030303D7
:10130800030404040404040404050505050505058F
:10131800050505050505050505060606060606066E
:101328000606060606060606060606060606060655
:10133800060606060606060606070707070707073E
:101348000707070707070707070707070707070725
:101358000707070707070707070707070707070715
:101368000707070707070707070707070707070705
:1013780007070707070707070708080808080808EE
:1013880008080808080808080808080808080808D5
:1013980008080808080808080808080808080808C5
:1013A80008080808080808080808080808080808B5
:1013B80008080808080808080808080808080808A5
:1013C8000808080808080808080808080808080895
:1013D8000808080808080808080808080808080885
:1013E8000808080808080808080808080808080875
:0A13F80008080808080808080800A3
:00000001FF
